:10000000092A000000000800A000030E8312031359
:10001000A3000A08A4008A010C1C1328652083127F
:1000200003130C101A280B1D1A28831203133118FE
:1000300023200B118312031324088A00230E83004C
:10004000A00E200E090083120313B20B08008312C6
:100050000313B11C3328B11036088F0035088E0009
:10006000101407153C2883120313B11434088F00B1
:1000700033088E00101487142C3083120313B2003F
:1000800036300605A5003F092505A600A61C4B280D
:10009000BB0A0319BC0A83120313261D5228BD0A8A
:1000A0000319BE0A83120313261E5928B90A03191D
:1000B000BA0A83120313A61E6028B70A0319B80AE6
:1000C000831203132508BF000800831203131010C6
:1000D0008710071108008312031385018601870129
:1000E000FF3083168500FF308600F8308700080057
:1000F0000230831603139F00080083120313B70115
:10010000B801B901BA01BB01BC01BD01BE01BF010B
:1001100008008312031387100711B101B301B40162
:10012000B501B6017D28831203132F09B4002E09EF
:10013000B300B30A0319B40A0800831203132F098A
:10014000B6002E09B500B50A0319B60A08008312D5
:1001500003138101803083168100831290010130E6
:10016000B20008008B018B160B17831603130C14B7
:100170008B1708006B2078208920A720B2288312D3
:100180000313A900C13029049F001D30AA00831267
:100190000313AA0BC7281F15831203131F19CC289A
:1001A000831203131E08080083120313AB00AB086D
:1001B000031DDC280130AB00F93083120313AC00BF
:1001C00083120313AC0BE028AB0BDC28080083126E
:1001D000031329082A04031DF0280130A900AA01ED
:1001E000FA30D42083120313A903290A0319AA039E
:1001F00029082A04031DF028080083120313A9010B
:1002000083120313061C0029FF30D420831203132A
:10021000061C0C290130A90083120313A908031935
:1002200000290800523083120313A9002908AF00E7
:10023000B0010830AE0083120313AF0DB00D0530CE
:100240003002031C2829053083120313B002031463
:1002500083120313A90DAE0B1B29DC30AA002A0858
:10026000AF00B0010830AE0083120313AF0DB00D24
:1002700005303002031C4129053083120313B002FC
:10028000031483120313AA0DAE0B34290130AD0001
:100290000630831203132D02031886292D08AF00A0
:1002A0000830AE00031083120313AB0DAF0D031C17
:1002B0005B292908AB0783120313AE0B52292D08C3
:1002C000AF000830AE00031083120313AC0DAF0D66
:1002D000031C6C292A08AC0783120313AE0B632995
:1002E0000D30AF002B08163CAE00031CAF0393206B
:1002F0000D3083120313AF00AC302C07AE0003188F
:10030000AF0A9D2083120313AD0A4829080052301A
:1003100083120313A9002908AF00B0010830AE0012
:1003200083120313AF0DB00D05303002031C9D295D
:10033000053083120313B002031483120313A90DB3
:10034000AE0B9029DC30AA002A08AF00B0010830BB
:10035000AE0083120313AF0DB00D05303002031C45
:10036000B629053083120313B0020314831203135A
:10037000AA0DAE0BA9290130AD000530831203137D
:100380002D020318FB292D08AF000830AE00031022
:1003900083120313AB0DAF0D031CD0292908AB0743
:1003A00083120313AE0BC7292D08AF000830AE002F
:1003B000031083120313AC0DAF0D031CE1292A08AF
:1003C000AC0783120313AE0BD8290930AF00C43039
:1003D0002B07AE000318AF0A9320133083120313C8
:1003E000AF002C08883CAE00031CAF039D20831295
:1003F0000313AD0ABD29AC3083120313AE000D30D8
:10040000AF009D20163083120313AE000D30AF00F5
:100410009328BA20FD20043083120313A900AA01F7
:10042000E72083120313311412210030BF208312FE
:100430000313A7001030BF2083120313A8003E301F
:1004400028020318A02A87218312031307140730F8
:10045000A900AA01E7208312031307100730A9009F
:10046000AA01E7208312031307140730A900AA0189
:10047000E7208312031307100730A900AA01E72021
:100480008312031307140730A900AA01E72083127F
:10049000031307100730A900AA01E72083120313F2
:1004A00007140730A900AA01E720831203130710DD
:1004B0000730A900AA01E7207A308312031328022B
:1004C00003189F2A1030BF2083120313A8000030A6
:1004D000BF2083120313A7006630270203187D2A6A
:1004E000C430AE000930AF009320AC308312031348
:1004F000AE000D30AF009D205C2A9A3083120313AA
:100500002702031C902A8830AE001330AF009D20D4
:10051000163083120313AE000D30AF0093205C2A17
:10052000C43083120313AE000930AF00932088302B
:1005300083120313AE001330AF009D205C2A1221FA
:10054000AC30831203132802031CF52A872183127F
:10055000031307143830A900AA01E72083120313FC
:1005600007107B30831203132802031CF42A103077
:10057000BF2083120313A8000030BF20831203138F
:10058000A700663027020318D22AC430AE00093013
:10059000AF009320AC3083120313AE000D30AF00D8
:1005A0009D20B12A9A30831203132702031CE52AE7
:1005B0008830AE001330AF009D2016308312031335
:1005C000AE000D30AF009320B12AC4308312031364
:1005D000AE000930AF009320883083120313AE00C1
:1005E0001330AF009D20B12A12216630831203130D
:1005F00027020318082BC430AE000930AF00932047
:10060000AC3083120313AE000D30AF009D20152ACD
:100610009A30831203132702031C1B2B8830AE0071
:100620001330AF009D20163083120313AE000D303F
:10063000AF009320152AC43083120313AE00093093
:10064000AF009320883083120313AE001330AF0045
:040650009D20152AAA
:02400E00FA3F77
:00000001FF
